{"abi":[{"type":"constructor","inputs":[{"name":"_uniswapV3Pool","type":"address","internalType":"address"},{"name":"_aaveV3Pool","type":"address","internalType":"address"},{"name":"_USDT","type":"address","internalType":"address"},{"name":"_vault","type":"address","internalType":"address"}],"stateMutability":"nonpayable"},{"type":"function","name":"USDT","inputs":[],"outputs":[{"name":"","type":"address","internalType":"address"}],"stateMutability":"view"},{"type":"function","name":"aaveV3Pool","inputs":[],"outputs":[{"name":"","type":"address","internalType":"address"}],"stateMutability":"view"},{"type":"function","name":"uniswapV3Pool","inputs":[],"outputs":[{"name":"","type":"address","internalType":"address"}],"stateMutability":"view"},{"type":"function","name":"vault","inputs":[],"outputs":[{"name":"","type":"address","internalType":"contract Vault"}],"stateMutability":"view"}],"bytecode":{"object":"0x60a060405234801561001057600080fd5b506040516101f83803806101f883398101604081905261002f91610093565b600080546001600160a01b039586166001600160a01b0319918216179091556001805494861694821694909417909355908316608052600280549190931691161790556100e7565b80516001600160a01b038116811461008e57600080fd5b919050565b600080600080608085870312156100a957600080fd5b6100b285610077565b93506100c060208601610077565b92506100ce60408601610077565b91506100dc60608601610077565b905092959194509250565b60805160f96100ff6000396000607d015260f96000f3fe6080604052348015600f57600080fd5b506004361060465760003560e01c806386a06ff014604b578063c54e44eb146079578063f55ebd2a14609f578063fbfa77cf1460b1575b600080fd5b600154605d906001600160a01b031681565b6040516001600160a01b03909116815260200160405180910390f35b605d7f000000000000000000000000000000000000000000000000000000000000000081565b600054605d906001600160a01b031681565b600254605d906001600160a01b03168156fea2646970667358221220d34c9250a4046c2794c498255c3596e954957164d75030cdc484ec3b1cac9bbb64736f6c634300081a0033","linkReferences":{}},"methodIdentifiers":{"USDT()":"c54e44eb","aaveV3Pool()":"86a06ff0","uniswapV3Pool()":"f55ebd2a","vault()":"fbfa77cf"},"id":30}