{
  "abi": [
    {
      "type": "constructor",
      "inputs": [
        {
          "name": "_a",
          "type": "bool",
          "internalType": "bool"
        },
        {
          "name": "_b",
          "type": "uint256",
          "internalType": "uint256"
        }
      ],
      "stateMutability": "nonpayable"
    },
    {
      "type": "function",
      "name": "a",
      "inputs": [],
      "outputs": [
        {
          "name": "",
          "type": "bool",
          "internalType": "bool"
        }
      ],
      "stateMutability": "view"
    },
    {
      "type": "function",
      "name": "b",
      "inputs": [],
      "outputs": [
        {
          "name": "",
          "type": "uint256",
          "internalType": "uint256"
        }
      ],
      "stateMutability": "view"
    }
  ],
  "bytecode": {
    "object": "0x6080604052348015600f57600080fd5b50604051610127380380610127833981016040819052602c916045565b6000805460ff1916921515929092179091556001556076565b60008060408385031215605757600080fd5b82518015158114606657600080fd5b6020939093015192949293505050565b60a3806100846000396000f3fe6080604052348015600f57600080fd5b506004361060325760003560e01c80630dbe671f1460375780634df7e3d0146058575b600080fd5b60005460439060ff1681565b60405190151581526020015b60405180910390f35b606060015481565b604051908152602001604f56fea264697066735822122067ab7774afec7050b58f6b769196bcde01f3477d1f72a7ee349120687971495464736f6c634300081a0033",
    "linkReferences": {}
  },
  "methodIdentifiers": {
    "a()": "0dbe671f",
    "b()": "4df7e3d0"
  },
  "id": 1
}